:100000000C943F000C9467000C9467000C946700FC
:100010000C9467000C9467000C9467000C946700C4
:100020000C9467000C9467000C9467000C946700B4
:100030000C9467000C9467000C9467000C946700A4
:100040000C9467000C9467000C947F000C9467007C
:100050000C945C010C94F8010C9467000C946700FC
:100060000C9467000C9467000C9467000C94670074
:100070000C9498010C9433020C9467009F03112494
:100080001FBECFEFD0E1DEBFCDBF11E0A0E0B1E0F9
:10009000E6EEF9E002C005900D92A032B107D9F763
:1000A00012E0A0E2B1E001C01D92AD37B107E1F767
:1000B00010E0CEE7D0E004C02297FE010E94ED04DC
:1000C000CC37D107C9F70E9441040C94F1040C9479
:1000D000000089E392E060E071E00E94B60468E805
:1000E00073E180E090E00E94C700089589E392E008
:1000F00040E052EC61E070E00E946E0208951F92B1
:100100000F920FB60F9211242F933F938F939F93CB
:10011000AF93BF938091240190912501A091260176
:10012000B0912701309128010196A11DB11D232F07
:100130002D5F2D3720F02D570196A11DB11D209365
:1001400028018093240190932501A0932601B09368
:1001500027018091200190912101A0912201B0916D
:1001600023010196A11DB11D8093200190932101CF
:10017000A0932201B0932301BF91AF919F918F91E2
:100180003F912F910F900FBE0F901F9018959B01DC
:10019000AC017FB7F8948091200190912101A0914A
:1001A0002201B091230166B5A89B05C06F3F19F0ED
:1001B0000196A11DB11D7FBFBA2FA92F982F8827A7
:1001C000860F911DA11DB11D62E0880F991FAA1F06
:1001D000BB1F6A95D1F7BC012DC0FFB7F894809181
:1001E000200190912101A0912201B0912301E6B557
:1001F000A89B05C0EF3F19F00196A11DB11DFFBFDF
:10020000BA2FA92F982F88278E0F911DA11DB11DE0
:10021000E2E0880F991FAA1FBB1FEA95D1F7861B42
:10022000970B885E9340C8F22150304040405040C8
:1002300068517C4F211531054105510571F608952E
:10024000789484B5826084BD84B5816084BD85B5B1
:10025000826085BD85B5816085BDEEE6F0E0808178
:1002600081608083E1E8F0E0108280818260808399
:10027000808181608083E0E8F0E08081816080831C
:10028000E1EBF0E0808184608083E0EBF0E080814E
:1002900081608083EAE7F0E08081846080838081F0
:1002A0008260808380818160808380818068808398
:1002B0001092C100089508951F920F920FB60F92E9
:1002C00011242F933F934F938F939F93EF93FF931B
:1002D0008091C00082FD1DC04091C600209169013F
:1002E00030916A012F5F3F4F2F73307080916B0107
:1002F00090916C012817390771F0E0916901F09134
:100300006A01E75DFE4F408330936A0120936901E3
:1003100002C08091C600FF91EF919F918F914F9104
:100320003F912F910F900FBE0F901F901895089539
:100330001F920F920FB60F9211242F933F934F935A
:100340008F939F93EF93FF938091C80082FD1DC010
:100350004091CE002091F1013091F2012F5F3F4F8B
:100360002F7330708091F3019091F40128173907B1
:1003700071F0E091F101F091F201EF54FE4F4083F2
:100380003093F2012093F10102C08091CE00FF91E1
:10039000EF919F918F914F913F912F910F900FBEB1
:1003A0000F901F901895E0914502F0914602E05C95
:1003B000FF4F8191919120813181821B930B8F732B
:1003C0009070892B11F00E945B01E0916702F0911F
:1003D0006802E05CFF4F8191919120813181821B05
:1003E000930B8F739070892B11F00E9497010895E1
:1003F0001F920F920FB60F9211242F933F938F935A
:100400009F93EF93FF932091AD013091AE018091C6
:10041000AF019091B0012817390731F48091C100E4
:100420008F7D8093C10014C0E091AF01F091B001C5
:10043000E359FE4F20818091AF019091B001019668
:100440008F7390709093B0018093AF012093C6009A
:10045000FF91EF919F918F913F912F910F900FBE40
:100460000F901F9018951F920F920FB60F921124A4
:100470002F933F938F939F93EF93FF932091350298
:10048000309136028091370290913802281739074F
:1004900031F48091C9008F7D8093C90014C0E09130
:1004A0003702F0913802EB50FE4F208180913702E5
:1004B0009091380201968F739070909338028093D8
:1004C00037022093CE00FF91EF919F918F913F9142
:1004D0002F910F900FBE0F901F901895AF92BF9263
:1004E000DF92EF92FF920F931F93CF93DF93EC0174
:1004F0007A018B01DD24403081EE580780E06807E7
:1005000080E0780711F0DD24D39491E0A92EB12C7E
:10051000EC89FD89DD2069F0C50108A002C0880FC3
:10052000991F0A94E2F7808360E079E08DE390E020
:1005300005C0108260E874E88EE190E0A8019701A0
:100540000E94C90421503040404050405695479584
:100550003795279580E12030380720F0DD2011F015
:10056000DD24D6CFE889F9893083EA89FB892083A5
:1005700019A2EE89FF89408121E030E0C9010C8C8D
:1005800002C0880F991F0A94E2F7482B4083EE8936
:10059000FF894081C9010D8C02C0880F991F0A9400
:1005A000E2F7482B4083EE89FF894081C9010E8C18
:1005B00002C0880F991F0A94E2F7482B4083EE8906
:1005C000FF8980810F8C02C0220F331F0A94E2F74B
:1005D000209528232083DF91CF911F910F91FF90C9
:1005E000EF90DF90BF90AF900895DC011C96ED91E5
:1005F000FC911D97E05CFF4F2191319180819181A9
:10060000281B390B2F733070C9010895DC011C962B
:10061000ED91FC911D97E05CFF4F20813181E0540A
:10062000F040DF01AE5BBF4F8D919C911197281771
:10063000390719F42FEF3FEF07C08D919C91E80F18
:10064000F91F8081282F30E0C9010895DC011C9634
:10065000ED91FC911D97E05CFF4F20813181E054CA
:10066000F040DF01AE5BBF4F8D919C911197281731
:10067000390719F42FEF3FEF10C08D919C9111971E
:10068000E80FF91F20818D919C91119701968F732E
:10069000907011969C938E9330E0C9010895DC010F
:1006A00091968C919197882339F05496ED91FC9115
:1006B0005597808186FFF9CF91961C920895CF932C
:1006C000DF93EC01EE85FF85E05CFF4F20813181F7
:1006D000E054F0402F5F3F4F2F733070DF01AE5B6F
:1006E000BF4F8D919C91119728173907D1F3E05C8A
:1006F000FF4F80819181E054F040E80FF91F608343
:10070000EE85FF85E05CFF4F31832083EE89FF8912
:10071000208181E090E00F8C02C0880F991F0A941D
:10072000E2F7282B208381E089A3EC89FD89808171
:100730008064808381E090E0DF91CF9108951F93E2
:1007400010923C0210923B0228EE33E040E050E071
:1007500020933D0230933E0240933F02509340026B
:1007600064E171E070933A026093390289E291E0AA
:1007700090934602809345028DE691E09093480263
:100780008093470285EC90E090934A02809349025F
:1007900084EC90E090934C0280934B0280EC90E0CC
:1007A00090934E0280934D0281EC90E09093500222
:1007B00080934F0282EC90E090935202809351021A
:1007C00086EC90E0909354028093530214E01093CF
:1007D0005502B3E0B0935602A7E0A0935702F5E0AC
:1007E000F0935802E1E0E093590210925E021092F9
:1007F0005D0220935F023093600240936102509348
:10080000620270935C0260935B0281EB91E09093D3
:1008100068028093670285EF91E090936A0280936B
:1008200069028DEC90E090936C0280936B028CECEB
:1008300090E090936E0280936D0288EC90E090932C
:10084000700280936F0289EC90E090937202809323
:1008500071028AEC90E090937402809373028EECA4
:1008600090E0909376028093750210937702B09394
:100870007802A0937902F0937A02E0937B021F91B1
:100880000895CF93DF930E9420010E947600C3ED6C
:10089000D1E00E9469002097E1F30E94D301F9CFD3
:1008A000CF92DF92EF92FF920F931F93CF93DF933C
:1008B0007C016B018A01C0E0D0E00FC0D6016D91D0
:1008C0006D01D701ED91FC910190F081E02DC70100
:1008D0000995C80FD91F015010400115110571F776
:1008E000CE01DF91CF911F910F91FF90EF90DF909C
:1008F000CF900895EF92FF920F931F938C01DC012C
:10090000ED91FC910190F081E02D6DE009957C0165
:10091000D801ED91FC910190F081E02DC8016AE0D1
:1009200009959C012E0D3F1DC9011F910F91FF904C
:10093000EF900895CF93DF93EC016115710519F4E1
:1009400020E030E00FC0DB010D900020E9F71197A7
:10095000A61BB70BE881F9810280F381E02DAD0180
:1009600009959C01C901DF91CF910895EF92FF9203
:100970000F931F937C010E949A048C01C7010E946F
:100980007A04080F191FC8011F910F91FF90EF9073
:100990000895A1E21A2EAA1BBB1BFD010DC0AA1FC0
:1009A000BB1FEE1FFF1FA217B307E407F50720F0D8
:1009B000A21BB30BE40BF50B661F771F881F991F53
:1009C0001A9469F760957095809590959B01AC019C
:1009D000BD01CF010895EE0FFF1F0590F491E02DAA
:0609E0000994F894FFCF1A
:1009E6007B636B30303130303232372E32307D001F
:1009F600000000005F035004F502260306034F03C0
:00000001FF
